S0140000506F7765724D6F6E69746F722E737265631B
S11300000C9467080C9484080C9484080C94840859
S11300100C9484080C9484080C9484080C9484082C
S11300200C9484080C9484080C947E170C94840813
S11300300C9484080C9484080C9484080C9484080C
S11300400C9484080C9484080C9484080C94FC1D6F
S11300500C94840805A84CCDB2D44EB93836A90204
S11300600C50B9918688083CA6AAAA2ABE000000B2
S1130070803F1010205F000000000000000000001E
S1130080000000000000000000000000000000006C
S11300900000000000000000000007000F800F8037
S11300A00F800F800F80070007000000000007008A
S11300B007000700000000000E380E380E380E3816
S11300C006300000000000000000000000000000F6
S11300D000000000000000000C300C300C307FFEEB
S11300E07FFE0C300C300C300C307FFE7FFE0C3069
S11300F00C300C3000000000024002400FF81FF8E2
S11301001A401A401FF00FF8025802581FF81FF047
S11301100240024000000000000000000E100E30FB
S11301200E7000E001C0038007000E700C700870B0
S1130130000000000000000000000F00198019807A
S113014019800F000F080F9819F818F018E019F02B
S11301500F980000000000000000070007000700DF
S11301600E0000000000000000000000000000007D
S11301700000000000000000000000F001C0038047
S113018007000E000E000E000E000700038001C0E1
S113019000F000000000000000000F00038001C018
S11301A000E0007000700070007000E001C0038087
S11301B00F00000000000000000001801188099079
S11301C007E007E03FFC3FFC07E007E009901188E7
S11301D00180000000000000000000000000018019
S11301E0018001800FF00FF0018001800180000088
S11301F000000000000000000000000000000000FB
S113020000000000000000000000000007000700DC
S113021007000E00000000000000000000000000C5
S1130220000000001FF81FF800000000000000009C
S113023000000000000000000000000000000000BA
S1130240000000000000000000000000070007009C
S11302500700000000000000000000020006000E7D
S1130260001C0038007000E001C0038007000E008D
S11302701C0000000000000000000FF01C381C7877
S11302801CF81CF81DB81DB81F381F381E381C3840
S11302900FF00000000000000000018001800380D6
S11302A01F801F80038003800380038003800380FA
S11302B01FF000000000000000000FE01C701C385C
S11302C00038007000E001C0038007000E381C38BD
S11302D01FF800000000000000000FE01C701C3834
S11302E00038007003C003C0007000381C381C7054
S11302F00FE0000000000000000000E001E003E067
S113030006E00CE018E01FF81FF800E000E000E051
S113031003F800000000000000001FF81C001C008F
S11303201C001C001FE01FF0007800381C381C70F3
S11303300FE0000000000000000003E007000E00D2
S11303401C001C001FF01FF81C381C381C381C38FB
S11303500FF000000000000000001FFC1C1C1C1C0F
S11303601C1C001C0038007000E001C003800380E6
S1130370038000000000000000000FF01C381C384F
S11303801C381F3807E007E01CF81C381C381C38E0
S11303900FF000000000000000000FF01C381C38B3
S11303A01C381C381FF80FF800380038007000E0C3
S11303B007C00000000000000000000000000380EF
S11303C0038003800000000003800380038000009A
S11303D00000000000000000000000000000038096
S11303E00380038000000000038003800380070073
S11303F00000000000000000007000E001C0038065
S113040007000E001C001C000E000700038001C042
S113041000E0007000000000000000000000000088
S11304203FFC3FFC000000003FFC3FFC00000000DC
S113043000000000000000001C000E000700038004
S113044001C000E00070007000E001C003800700FC
S11304500E001C000000000003C00FF01E781838C6
S11304600038007000E001C001C00000000001C0BD
S113047001C001C0000000000FF81C1C1C1C1C1C47
S11304801C1C1CFC1CFC1CFC1CFC1C001C001C007C
S11304901FF007F800000000000003C007E00E7022
S11304A01C381C381C381C381FF81C381C381C38E5
S11304B01C3800000000000000001FF00E380E3849
S11304C00E380E380FF00FF00E380E380E380E3886
S11304D01FF0000000000000000007F00E381C3878
S11304E01C001C001C001C001C001C001C380E38C6
S11304F007F000000000000000001FE00E700E383E
S11305000E380E380E380E380E380E380E380E707F
S11305101FE000000000000000001FF80E180E0885
S11305200E000E300FF00FF00E300E000E080E18F5
S11305301FF800000000000000001FF80E180E084D
S11305400E000E300FF00FF00E300E000E000E00F5
S11305501F00000000000000000007F00E381C38E7
S11305601C381C001C001C001CF81C381C380E38DD
S113057007F800000000000000001C701C701C70D4
S11305801C701C701FF01FF01C701C701C701C7001
S11305901C7000000000000000000FE003800380D6
S11305A0038003800380038003800380038003802F
S11305B00FE0000000000000000001FC007000706B
S11305C000700070007000703870387038703870C7
S11305D00FE000000000000000001E380E380E700E
S11305E00EE00FC00F800F800FC00EE00E700E38AB
S11305F01E3800000000000000001F000E000E0066
S11306000E000E000E000E000E000E080E180E381E
S11306101FF800000000000000001C1C1E3C1F7C92
S11306201FFC1FFC1DDC1C9C1C1C1C1C1C1C1C1CFF
S11306301C1C00000000000000001C1C1C1C1E1CD4
S11306401F1C1F9C1DDC1CFC1C7C1C3C1C1C1C1C3F
S11306501C1C000000000000000003E007F00E383E
S11306601C1C1C1C1C1C1C1C1C1C1C1C0E3807F0F9
S113067003E000000000000000001FF00E380E38F8
S11306800E380E380FF00FF00E000E000E000E00A4
S11306901F00000000000000000003E00F780E3887
S11306A01C1C1C1C1C1C1C1C1C7C1CFC0FF80FF8A8
S11306B0003800FC0000000000001FF00E380E3867
S11306C00E380E380FF00FF00E700E380E380E384C
S11306D01E3800000000000000000FF01C381C3819
S11306E01C381C000FE007F000381C381C381C387C
S11306F00FF000000000000000001FFC19CC11C422
S113070001C001C001C001C001C001C001C001C0DD
S113071007F000000000000000001C701C701C703A
S11307201C701C701C701C701C701C701C701C7065
S11307300FE000000000000000001C701C701C7022
S11307401C701C701C701C701C701C700EE007C0A8
S1130750038000000000000000001C1C1C1C1C1C6A
S11307601C1C1C1C1C9C1C9C1C9C0FF80FF8077068
S1130770077000000000000000001C701C701C705A
S11307800EE007C00380038007C00EE01C701C70DD
S11307901C7000000000000000001C701C701C7025
S11307A01C701C700EE007C003800380038003806C
S11307B00FE000000000000000001FF81C3818388B
S11307C0107000E001C0038007000E081C181C38DC
S11307D01FF8000000000000000007F007000700F9
S11307E007000700070007000700070007000700CD
S11307F007F00000000000000000100018001C00BA
S11308000E000700038001C000E000700038001CE7
S11308100007000000000000000007F000700070F6
S11308200070007000700070007000700070007044
S113083007F0000000000000018003C007E00E7014
S11308401C38000000000000000000000000000050
S11308500000000000000000000000000000000094
S11308600000000000000000000000000000000084
S113087000007FFF7FFF000000001C001C00070039
S1130880070000000000000000000000000000005D
S11308900000000000000000000000000000000054
S11308A000000FE0007000700FF01C701C701C70D2
S11308B00FD800000000000000001E000E000E0013
S11308C00E000FF00E380E380E380E380E380E3873
S11308D01BF0000000000000000000000000000009
S11308E000000FE01C701C701C001C001C701C70AD
S11308F00FE0000000000000000000F8007000702D
S113090000700FF01C701C701C701C701C701C702C
S11309100FD80000000000000000000000000000EC
S113092000000FE01C701C701FF01C001C701C7079
S11309300FE0000000000000000003E007700770F3
S1130940070007001FE01FE007000700070007007B
S11309501FC00000000000000000000000000000B4
S113096000000FD81C701C701C701C700FF007F076
S113097000701C700FE0000000001E000E000E004E
S11309800E000EF00F380F380E380E380E380E38B1
S11309901E38000000000000000001C001C001C0BA
S11309A000000FC001C001C001C001C001C001C0EE
S11309B00FF80000000000000000007000700070DC
S11309C0000003F000700070007000700070007090
S11309D01C700CF007E0000000001E000E000E006A
S11309E00E000E380E700EE00FC00EE00E700E38C2
S11309F01E3800000000000000000FC001C001C04C
S1130A0001C001C001C001C001C001C001C001C0DA
S1130A100FF80000000000000000000000000000CB
S1130A2000001FF81C9C1C9C1C9C1C9C1C9C1C9C5B
S1130A301C9C0000000000000000000000000000FA
S1130A4000001FE01C701C701C701C701C701C705B
S1130A501C70000000000000000000000000000006
S1130A6000000FE01C701C701C701C701C701C704B
S1130A700FE0000000000000000000000000000083
S1130A8000001BF00E380E380E380E380E380FF0FA
S1130A900E000E001F000000000000000000000017
S1130AA000001FB038E038E038E038E038E01FE0FC
S1130AB000E000E001F00000000000000000000081
S1130AC000001EF00FF80F380E000E000E000E008E
S1130AD01F000000000000000000000000000000F3
S1130AE000000FE01C301C300F8003E018701870F9
S1130AF00FE00000000000000000000001000300FF
S1130B0007001FF0070007000700070007700770C1
S1130B1003E00000000000000000000000000000EE
S1130B2000001C701C701C701C701C701C701C70ED
S1130B300FD80000000000000000000000000000CA
S1130B4000001C701C701C701C701C700EE007C030
S1130B50038000000000000000000000000000000E
S1130B6000001C1C1C1C1C1C1C9C1C9C0FF80770EB
S1130B7007700000000000000000000000000000FA
S1130B8000001CE01CE00FC0078007800FC01CE0C1
S1130B901CE0000000000000000000000000000055
S1130BA000000E380E380E380E380E3807F003E009
S1130BB000E001C01F8000000000000000000000F1
S1130BC000001FE018E011C0038007000E201C6025
S1130BD01FE0000000000000000001F80380038013
S1130BE0038007001C001C000700038003800380AF
S1130BF001F800000000000001C001C001C001C0F4
S1130C0001C001C001C001C001C001C001C001C0D8
S1130C1001C001C00000000000001F8001C001C02D
S1130C2001C000E00038003800E001C001C001C08C
S1130C301F8000000000000000001F1C3B9C39DCEA
S1130C4038F8000000000000000000000000000070
S1130C50000000000000080C205F000000000000FD
S1130C6000000000000000002020202020200020A0
S1130C7000000028505000000000000000000000A8
S1130C802828FC2850FC50500000002078A8A060C0
S1130C903028A8F02000000048A8B0502834544858
S1130CA00000000020505078A8A8906C000000407C
S1130CB04080000000000000000000040810101034
S1130CC01010100804000040201010101010102004
S1130CD0400000000020A87070A820000000000060
S1130CE0202020F820202000000000000000000048
S1130CF00000004040800000000000F800000000F8
S1130D000000000000000000000000400000000897
S1130D101010102020404040800000007088888817
S1130D208888887000000000206020202020207027
S1130D300000000070888810204080F80000000047
S1130D407088083008088870000000001030505087
S1130D509078101800000000F88080F0080888706F
S1130D6000000000709080F0888888700000000007
S1130D70F890102020202020000000007088887047
S1130D808888887000000000708888887808487017
S1130D90000000000000200000000020000000000F
S1130DA00000002000000020200000040810204063
S1130DB020100804000000000000F80000F8000003
S1130DC0000000402010080408102040000000002B
S1130DD0708888102020002000000000708898A8E7
S1130DE0A8B880780000000020203050507848CC0B
S1130DF000000000F0484870484848F00000000037
S1130E00788880808080887000000000F04848481E
S1130E10484848F000000000F8485070504048F836
S1130E2000000000F8485070504040E0000000000E
S1130E30384880809C88483000000000CC484878BE
S1130E40484848CC00000000F8202020202020F84A
S1130E50000000007C10101010101090E000000042
S1130E60EC485060505048EC00000000E040404026
S1130E70404044FC00000000D8D8D8D8A8A8A8A8AE
S1130E8000000000DC486868585848E8000000008A
S1130E90708888888888887000000000F04848704E
S1130EA0404040E0000000007088888888E898701E
S1130EB018000000F0484870504848EC000000005A
S1130EC078888060100888F000000000F8A82020CE
S1130ED02020207000000000CC4848484848483092
S1130EE000000000CC484850503020200000000092
S1130EF0A8A8A8705050505000000000D8505020AE
S1130F00205050D800000000D850502020202070DD
S1130F1000000000F8901020204048F8000000383D
S1130F202020202020202020380000404040202085
S1130F301010100800000070101010101010101085
S1130F4070000020500000000000000000000000BD
S1130F50000000000000000000FC00200000000071
S1130F600000000000000000000000304838483C49
S1130F7000000000C0404070484848700000000075
S1130F8000000038484040380000000018080838C5
S1130F904848483C000000000000003048784038D1
S1130FA0000000001C202078202020780000000091
S1130FB00000003C4830407844380000C040407095
S1130FC0484848EC00000000200000602020207009
S1130FD000000000100000301010101010E000009D
S1130FE0C040405C507048EC00000000E02020202D
S1130FF0202020F800000000000000F0A8A8A8A805
S113100000000000000000F0484848EC0000000028
S1131010000000304848483000000000000000F0A4
S11310204848487040E0000000000038484848380C
S1131030081C0000000000D8604040E000000000F0
S11310400000007840300878000000000020207084
S11310502020201800000000000000D84848483C28
S113106000000000000000EC4850302000000000A8
S1131070000000A8A870505000000000000000D834
S1131080502050D800000000000000EC48503020F0
S113109020C0000000000078102020780000001814
S11310A01010102010101010180010101010101034
S11310B0101010101010006020202010202020207C
S11310C0600040A41800000000000000000011248B
S11310D01FBECFE5D8E0DEBFCDBF10E0A0E6B0E094
S11310E0E8E6F5E402C005900D92A038B107D9F7FF
S11310F020E0A0E8B0E001C01D92A43CB207E1F7F3
S11311000E94D41D0C94B2220C9400000F931F93E0
S1131110CF93DF931F92CDB7DEB7182F1092AE0096
S11311200E94691E80ED0E94801E0091AE000E9404
S1131130B51E802B8093AE00812F0E94801E0091EB
S1131140AE000E94B51E802B8093AE000E94691EE3
S113115081ED0E94801E0091AE000E94B51E802B7E
S11311608093AE000E94E51E89830E94CE1E0E94D9
S1131170A31E9091AE0089819111D0CF0F90DF9181
S1131180CF911F910F9108950E948608982F9295F0
S11311909F708F702AE0929F800D1124089580E043
S11311A00C94C40881E00C94C40882E00C94C40834
S11311B09091BA00992349F0913071F482BB0000F8
S11311C0C4980000C49A000001C082BB62BB000046
S11311D0C4980000C49A00000895C39A0C94D808D7
S11311E0C398682F80E00C94D808CF93DF9300D085
S11311F0CDB7DEB769837A830E94F00869817A816A
S1131200872F0F900F90DF91CF910C94ED089FEFF3
S113121091BB12BABB9ABC9AA19AD39AA99AC39ABF
S1131220C49ADB9A2FE73AE196E02150304090408F
S1131230E1F700C00000A998EFE4F3EC3197F1F76F
S113124000C00000A99AEFE4F3EC3197F1F700C075
S1131250000020EF30E03093B2002093B10020E48E
S113126031E03093B4002093B3008093AF006093D7
S1131270B0001092B50091E09093BA00823009F06A
S113128021C160EF78E785EE0E94F50860E071E027
S113129081E00E94F50860E072E082E00E94F508B7
S11312A068E170E183E00E94F50860E070E084E0AA
S11312B00E94F50867E072E088E00E94F50860E0AB
S11312C070E089E00E94F50860E070E08AE00E9426
S11312D0F50860E070E08CE00E94F50860E070E0E2
S11312E08DE00E94F50860E070E08FE00E94F50850
S11312F060E070E080E10E94F50867E070E081E161
S11313000E94F50860E070E082E10E94F50860E068
S113131070E083E10E94F50861E070E087E00E94DC
S1131320F508FFEF24E33CE0F15020403040E1F7C2
S113133000C0000060E976E180E10E94F50867E200
S113134072E081E10E94F5088FE39DE0E3E08150C3
S11313509040E040E1F700C000006DE070E082E101
S11313600E94F508FFE32DE033E0F15020403040C7
S1131370E1F700C0000060E072E183E10E94F5083B
S11313806AE070E089E20E94F5086DE070E08BE2AB
S11313900E94F5088FE39DE0E3E081509040E04037
S11313A0E1F700C0000060E070E080E20E94F50810
S11313B060E070E081E20E94F50860E070E080E3A4
S11313C00E94F50864E074E081E30E94F50863E09C
S11313D070E082E30E94F50865E074E085E30E9412
S11313E0F50868E078E086E30E94F50867E074E0B9
S11313F087E30E94F50863E073E088E30E94F50840
S113140067E077E089E30E94F50864E075E08CE327
S11314100E94F50868E078E08DE30E94F50860E03A
S113142070E080E50E94F5086FEE70E081E50E94AF
S1131430F50860E070E082E50E94F5086FE371E072
S113144083E50E94F50860E077EA80E60E94F508EB
S113145061E070E081E60E94F50860E070E08AE6F1
S11314600E94F50860E070E080E80E94F50860E002
S113147070E081E80E94F50860E070E082E80E9474
S1131480F50860E070E083E80E94F50860E070E031
S113149084E80E94F50860E070E085E80E94F508A1
S11314A060E170E080E90E94F50860E070E082E9A4
S11314B00E94F50863E371E087E00E94F50882E288
S11314C00E94F0088FEF8093B6008093B7001092CB
S11314D0B8001092B9001092B5001092BC0010929E
S11314E0BB0008959093B6008093B700089590933D
S11314F0B8008093B9001092B5000895CF92DF929E
S1131500EF92FF920F931F93CF93DF93EC016B0144
S11315108A01F22EE32E8091B000813079F480911B
S1131520B3009091B400AC014C1B5D0B801B910B7C
S1131530022F132FF42EE52EEB016C018091AF00E6
S1131540823029F5BE0180E20E94F5086F2D7E2DC0
S113155081E20E94F508BE0180E50E94F508B6010B
S113156082E50E94F508B80181E50E94F5086F2D17
S11315707E2D83E50E94F50882E2DF91CF911F91D1
S11315800F91FF90EF90DF90CF900C94F008DF91D3
S1131590CF911F910F91FF90EF90DF90CF9008951E
S11315A0CF93DF93D42FC52F9B01AC010E947E0AF9
S11315B06D2F8C2FDF91CF910C94ED082091B0000A
S11315C08091B3009091B4004091B1005091B20069
S11315D0211102C09C0102C09A01AC0160E070E0DC
S11315E080E090E00C947E0ACF92DF92EF92FF921B
S11315F082BB62BBDA01C90164E0B695A7959795F1
S113160087956A95D1F760E070E032C0C498000015
S1131610C49AC4980000C49AC4980000C49AC49898
S11316200000C49AC4980000C49AC4980000C49AE4
S1131630C4980000C49AC4980000C49AC4980000D6
S1131640C49AC4980000C49AC4980000C49AC49868
S11316500000C49AC4980000C49AC4980000C49AB4
S1131660C4980000C49AC4980000C49A6F5F7F4F66
S11316706B01E12CF12CC816D906EA06FB0608F426
S1131680C5CFDA01C9018F709927AA27BB27009714
S1131690A105B10539F413C0C4980000C49A2F5FA2
S11316A03F4F05C020E030E00196A11DB11DA90106
S11316B060E070E0481759076A077B0768F3FF90FA
S11316C0EF90DF90CF9008950F931F9382BB8A0110
S11316D09B01E4E03695279517950795EA95D1F790
S11316E080E090E0DC0163C0C4980000C49AC49810
S11316F00000C49AC4980000C49AC4980000C49A14
S1131700C4980000C49AC4980000C49AC498000005
S1131710C49AC4980000C49AC4980000C49AC49897
S11317200000C49AC4980000C49AC4980000C49AE3
S1131730C4980000C49AC4980000C49AC4980000D5
S1131740C49AC4980000C49AC4980000C49AC49867
S11317500000C49AC4980000C49AC4980000C49AB3
S1131760C4980000C49AC4980000C49AC4980000A5
S1131770C49AC4980000C49AC4980000C49AC49837
S11317800000C49AC4980000C49AC4980000C49A83
S1131790C4980000C49AC4980000C49AC498000075
S11317A0C49AC4980000C49A0196A11DB11D801763
S11317B09107A207B30709F097CFDB01CA018F7025
S11317C09927AA27BB270097A105B10561F416C084
S11317D0C4980000C49AC4980000C49A4F5F5F4F35
S11317E06F4F7F4F06C040E050E0BA010196A11D43
S11317F0B11D481759076A077B0750F31F910F91D2
S11318000895CF92DF92EF92FF92CF93DF9300D0AF
S113181000D0CDB7DEB7A091B100B091B200209155
S1131820B3003091B4000E949B229B01AC016983F8
S11318303A834B835C830E94DE0AC39A8091BA0088
S113184029813A814B815C81811110C060E070E094
S113185080E090E00F900F900F900F90DF91CF9168
S1131860FF90EF90DF90CF900C94F40A813011F543
S1131870BA01A90180E090E00F900F900F900F90B3
S1131880DF91CF91FF90EF90DF90CF900C94640B99
S113189060E080E029833A834B835C830E94D8080C
S11318A08FEFC81AD80AE80AF80A29813A814B81CD
S11318B05C8103C0C12CD12C7601C216D306E40688
S11318C0F50631F70F900F900F900F90DF91CF91A5
S11318D0FF90EF90DF90CF900895CF92DF92EF9238
S11318E0FF920F931F93CF93DF9300D000D0CDB717
S11318F0DEB77C01C12C1F2D082FA091B100B0913F
S1131900B2002091B3003091B4000E949B229B014D
S1131910AC0169833A834B835C830E94DE0AC39AD9
S11319208091BA0029813A814B815C81811112C076
S1131930B70177278F2D9C2D0F900F900F900F904C
S1131940DF91CF911F910F91FF90EF90DF90CF9097
S11319500C94F40A813031F5FE1024C0BA01A901B7
S11319608F2D9C2D0F900F900F900F90DF91CF91A2
S11319701F910F91FF90EF90DF90CF900C94640B28
S1131980602F812F29833A834B835C830E94D8087C
S11319908FEFC81AD80AE80AF80A29813A814B81DC
S11319A05C8103C0C12CD12C7601C216D306E40697
S11319B0F50631F70F900F900F900F90DF91CF91B4
S11319C01F910F91FF90EF90DF90CF9008952F9289
S11319D03F924F925F926F927F928F929F92AF92BB
S11319E0BF92CF92DF92EF92FF920F931F93CF9308
S11319F0DF936C014A01590184179507A9F4621712
S1131A00730718F4C1E0D0E002C0CFEFDFEF3B0171
S1131A1007C0A801B301C6010E94D00A6C0E7D1E46
S1131A206A147B04B1F75DC08417950720F422245F
S1131A302394312C03C022242A94322C6A157B056A
S1131A4020F444244394512C03C044244A94542C39
S1131A50E401CC19DD09D7FF03C0D195C195D109A3
S1131A607501E61AF70AF7FE03C0F194E194F10850
S1131A70EC16FD06DCF43B01A12CB12C13C0A8012B
S1131A80B301C6010E94D00AAE0CBF1CC501880F69
S1131A90991F8C179D0724F0640C751CAC1ABD0AA1
S1131AA0C20CD31CC814D90451F71BC046013B0116
S1131AB0C12CD12C13C0A801B301C4010E94D00AC7
S1131AC0CC0EDD1EC601880F991F8E159F0524F0CC
S1131AD0820C931CCE18DF08640C751C6A147B04FA
S1131AE051F7DF91CF911F910F91FF90EF90DF900D
S1131AF0CF90BF90AF909F908F907F906F905F90AA
S1131B004F903F902F9008952F923F924F925F9263
S1131B106F927F928F929F92AF92BF92CF92DF92F9
S1131B20EF92FF920F931F93CF93DF93CDB7DEB75E
S1131B306A970FB6F894DEBF0FBECDBF2B013C01F0
S1131B402D833E834F835887E982FA820B831C835B
S1131B5014016E157F0580079107A9F59A2D8B2D29
S1131B602A153B054C055D0514F49D818E81E92EF3
S1131B70F82E00E010E004C0A101C2010E94D00AC6
S1131B80B8016E0D7F1D0F5F1F4F9B0140E050E0B9
S1131B9029833A834B835C83D601C5012D813E8121
S1131BA04F815885A216B306C406D50614F4DA018B
S1131BB0C90129813A814B815C8182179307A4076B
S1131BC0B507D4F6A0C18D819E81AF81B8858A15F1
S1131BD09B05AC05BD05A9F599818A81C980DA8088
S1131BE0EB80FC804C145D046E047F0414F4942D8B
S1131BF0852DE92EF82E970100E010E009C0A1011F
S1131C006D817E81298F3A8F0E94D00A3A8D298D69
S1131C10C801820F931F0F5F1F4F4C01A12CB12CE1
S1131C2049815A816B817C81441555056605770588
S1131C3014F4B301A201481559056A057B05FCF6A5
S1131C4062C1860175012D813E814F815885E21A5A
S1131C50F30A040B150B89819A81AB81BC8184152D
S1131C609505A605B7050CF0B9C09C01AD016FA59B
S1131C7078A989A99AA90E942D224B015C01A3018C
S1131C8092016FA578A989A99AA90E942D22698732
S1131C907A878B879C87A80197016FA578A989A962
S1131CA09AA90E942D226B017C01A30192018981D2
S1131CB09A81AB81BC81281B390B4A0B5B0B6FA546
S1131CC078A989A99AA90E942D226D877E878F877A
S1131CD0988B2D813E814F8158856FA578A989A95C
S1131CE09AA90E942D222B013C0122273327A90106
S1131CF02C193D094E095F09298B3A8B4B8B5C8B60
S1131D0029853A854B855C85281939094A095B0977
S1131D10C701B6010E942D226D8B7E8B8F8B988F0D
S1131D20C12CD12C760147EE53E05E834D8387EEC0
S1131D3093E09A83898347C06D897E898F89988DC2
S1131D406C0D7D1D8E1D9F1D2D853E854F855889EB
S1131D500E947F22240D351D461D571DCA01B9015D
S1131D602FA538A949A95AA90E947F228901C50132
S1131D70B4012FA538A949A95AA90E947F22A98193
S1131D80BA81A217B30729F44D815E814017510728
S1131D9069F0A101B801C901298F3A8F0E94D00AC4
S1131DA01E830D83298D3A8D3A8329835FEF851A2B
S1131DB0950AA50AB50A89899A89AB89BC89C80E8E
S1131DC0D91EEA1EFB1E29853A854B855C8528159C
S1131DD039054A055B050CF0AFCF95C0A30192010C
S1131DE06FA578A989A99AA90E942D225B016C018B
S1131DF029813A814B815C816FA578A989A99AA927
S1131E000E942D2269877A878B879C87241935093C
S1131E10460957096FA578A989A99AA90E942D2274
S1131E2069837A838B839C832D813E814F8158857E
S1131E306FA578A989A99AA90E942D226D837E8312
S1131E408F839887A80197016FA578A989A99AA972
S1131E500E942D226D877E878F87988B412C512C71
S1131E60320117EE812E13E0912E07EEE02E03E0EF
S1131E70F02E3FC0C301B20129813A814B815C81BC
S1131E800E947F228D819E81AF81B885280F391FE2
S1131E904A1F5B1FCA01B9012FA538A949A95AA92C
S1131EA00E947F228901C601B5012FA538A949A93D
S1131EB05AA90E947F22E216F30619F480169106AD
S1131EC059F0A101B801C901298F3A8F0E94D00AA3
S1131ED04801298D3A8D79019FEFA91AB90AC90AD7
S1131EE0D90A2D853E854F855889420E531E641E9E
S1131EF0751E89859A85AB85BC858A159B05AC05BD
S1131F00BD050CF0B7CF6A960FB6F894DEBF0FBECE
S1131F10CDBFDF91CF911F910F91FF90EF90DF9094
S1131F20CF90BF90AF909F908F907F906F905F9075
S1131F304F903F902F9008952F923F924F925F922F
S1131F406F927F928F929F92AF92BF92CF92DF92C5
S1131F50EF92FF920F931F93CF93DF93CDB7DEB72A
S1131F60AD970FB6F894DEBF0FBECDBF9B8F8A8F9F
S1131F707A8769875F8F4E8F39011A830983F98EB7
S1131F80E88EBC01882777FD8095982F0E941B203E
S1131F906B017C012E8D3F8DB901882777FD8095DB
S1131FA0982F0E941B204B015C01B30180E090E05C
S1131FB00E9419202BED3FE049E450E40E9448219F
S1131FC020E030E044E353E40E94801F0E947D1F20
S1131FD09B01AC01C501B4010E9448219B01AC01E5
S1131FE0C701B6010E94021F0E94E81F8B014981AC
S1131FF05A81460D571D5A834983493681E0580753
S113200020F0485651405A834983A981BA81BD01C1
S113201080E090E00E9419202BED3FE049E450E479
S11320200E94482120E030E044E353E40E94801FF2
S11320300E947D1F9B01AC01C501B4010E9448218F
S11320409B01AC01C701B6010E94021F0E94E81F58
S11320507A8B698BB801882777FD8095982FE98161
S1132060FA81B5EB6B16710408F0CBC2E53BF105C0
S113207020F4E615F70508F039C20E941B20562EFD
S1132080472E3C0137EE232E33E0332E27EE33E088
S11320903E832D838A8D9B8D4E8D5F8D841B950B86
S11320A09C01442737FD4095542F28A339A34AA304
S11320B05BA389859A85AA2797FDA095BA2F8CA33F
S11320C09DA3AEA3BFA35DC0C501B4010E94ED21D1
S11320D06D877E878F87988BA7019601D2016B2F1E
S11320E0742D862D972D0E94011F0E94ED219B01C6
S11320F0AC016D857E858F8598890E94011F0E94A1
S1132100AF219B01AC016CA17DA18EA19FA12AA747
S11321103BA748A759A70E941B202AA53BA548A571
S113212059A50E94011F0E94E81F8B01A201652F7F
S1132130742D862D972D0E94ED1F9B01AD81BE81CC
S1132140A617B70719F42016310669F01801488D4F
S1132150598DB801C9012AA73BA70E94D00A2AA514
S11321603BA53E832D8320E030E040E05FE3D201D5
S11321706B2F742D862D972D0E94011F562E472EEE
S11321803C0168A179A18AA19BA10E941B208B011B
S11321908DA79CA76D871D8B8E8B9F8B762F982F79
S11321A08F89272F312F492F582FD2016B2F742D50
S11321B0862D972D0E94442187FF86CF89819A819D
S11321C0855B9109843B910508F0DDC0BDA5BD8701
S11321D0ECA5E98329893A89442737FD4095542F92
S11321E0298B3A8B4B8B5C8B89859A85AA2797FD23
S11321F0A095BA2F89879A87AB87BC8754C0C5013D
S1132200B4010E94ED212B013C01A7019601FD853B
S1132210E981602F712F8F2F9E2F0E94011F0E9432
S1132220ED219B01AC01C301B2010E94011F0E9478
S1132230AF212B013C0169857A858B859C850E94A1
S11322401B209B01AC01C301B2010E94021F0E942A
S1132250E81F2B013D852981602F712F832F922F39
S11322600E94ED1F3B01AD81BE81A617B70719F48B
S11322702414350449F01201488D598DB201C3016B
S11322800E94D00A7E826D8220E030E040E05FE36D
S1132290FD85E981602F712F8F2F9E2F0E94021FD1
S11322A08B018D87998369897A898B899C890E949E
S11322B01B209B01AC01FD85E981602F712F8F2FBD
S11322C09E2F0E94791F18160CF099CF68C4C5017F
S11322D0B4010E94ED212B013C01A7019601BD85AB
S11322E0AD89EE891F896B2F7A2F8E2F912F0E9433
S11322F0011F0E94ED219B01AC01C301B2010E94A8
S1132300011F0E94AF212B013C016A8D7B8D8C8DB6
S11323109D8D0E941B209B01AC01C301B2010E9450
S1132320021F0E94E81F8B015D854D893E892F891C
S1132330652F742F832F922F0E94ED1F3B01ED8197
S1132340FE81E617F70719F42016310649F0180143
S1132350488D598DB801C3010E94D00A7E826D82D6
S113236020E030E040E05FE3BD85AD89EE891F8960
S11323706B2F7A2F8E2F912F0E94021F6D877D8BDA
S11323808E8B9F8B19C08A8D9B8D2E8D3F8D820FD6
S1132390931F9C01442737FD4095542F29833A838A
S11323A04B835C8389859A85AA2797FDA095BA2FCC
S11323B08A8F9B8FAC8FBD8F69817A818B819C8141
S11323C00E941B202B013C01762F272F352D462DF3
S11323D0572DBD85AD89EE891F896B2F7A2F8E2FDE
S11323E0912F0E94791F18160CF071CF5AC0C501A5
S11323F0B4010E94ED2169837A838B839C83A701B6
S11324009601642D752D862D972D0E94011F0E9423
S1132410ED219B01AC0169817A818B819C810E94B1
S1132420011F0E94AF219B01AC0169857A858B85D0
S11324309C852AA73BA748A759A70E941B202AA529
S11324403BA548A559A50E94011F0E94E81F8B01C6
S1132450642D752D862D972D0E94ED1F9B01AD8156
S1132460BE81A617B70719F42016310669F01801C2
S1132470488D598DB801C9012AA73BA70E94D00AEB
S11324802AA53BA53E832D8320E030E040E05FE3B6
S1132490642D752D862D972D0E94011F2B013C0163
S11324A014C029893A89442737FD4095542F298B34
S11324B03A8B4B8B5C8B89859A85AA2797FDA095CF
S11324C0BA2F89879A87AB87BC8769897A898B8970
S11324D09C890E941B209B01AC01642D752D862DC7
S11324E0972D0E94442187FF82CF59C30E941B204D
S11324F02B013C0127EE222E23E0322EA7EEB3E07F
S1132500BA83A98329893A89442737FD4095542FF2
S1132510298B3A8B4B8B5C8B89859A85AA2797FDEF
S1132520A095BA2F89879A87AB87BC8759C0C50104
S1132530B4010E94ED216D837E838F839887A70168
S11325409601642D752D862D972D0E94011F0E94E2
S1132550ED219B01AC016D817E818F8198850E9464
S1132560011F0E94AF219B01AC0169857A858B858F
S11325709C852AA73BA748A759A70E941B202AA5E8
S11325803BA548A559A50E94011F0E94E81F8B0185
S1132590642D752D862D972D0E94ED1F9B01A98119
S11325A0BA81A617B70719F42016310669F0180185
S11325B0488D598DB801C9012AA73BA70E94D00AAA
S11325C02AA53BA53A83298320E030E040E05FE37D
S11325D0642D752D862D972D0E94011F2B013C0122
S11325E069897A898B899C890E941B209B01AC0193
S11325F0642D752D862D972D0E94442187FF97CF3A
S1132600CEC2E615F70508F48CC00E941B202B01EE
S11326103C0197EE292E93E0392E27EE33E03A83DE
S1132620298389899A89AA2797FDA095BA2F898B2E
S11326309A8BAB8BBC8B29853A85442737FD409513
S1132640542F29873A874B875C8759C0C501B40149
S11326500E94ED216D837E838F839887A701960165
S1132660642D752D862D972D0E94011F0E94ED214A
S11326709B01AC016D817E818F8198850E94011F31
S11326800E94AF216D837E838F83988769857A85C5
S11326908B859C850E941B209B01AC016D817E81F2
S11326A08F8198850E94021F0E94E81F8B01642D70
S11326B0752D862D972D0E94ED1F9B0149815A810E
S11326C04617570719F42016310669F01801488D8A
S11326D0598DB801C9012AA73BA70E94D00A2AA58F
S11326E03BA53A83298320E030E040E05FE3642D9A
S11326F0752D862D972D0E94021F2B013C0169899F
S11327007A898B899C890E941B209B01AC01642DD2
S1132710752D862D972D0E94791F18160CF096CFD3
S11327203EC20E941B20562E472E3C0187EE282EC7
S113273083E0382E87EE93E09E838D838A8D9B8D74
S1132740AE8DBF8D8A0F9B1F9C01442737FD40959A
S1132750542F28A339A34AA35BA389859A85AA2762
S113276097FDA095BA2F8CA39DA3AEA3BFA35DC074
S1132770C501B4010E94ED216D877E878F87988BF8
S1132780A7019601D2016B2F742D862D972D0E94DF
S1132790011F0E94ED219B01AC016D857E858F8513
S11327A098890E94011F0E94AF216D877E878F87C1
S11327B0988B6CA17DA18EA19FA10E941B209B01DF
S11327C0AC016D857E858F8598890E94021F0E94C9
S11327D0E81F8B01A201652F742D862D972D0E9471
S11327E0ED1F9B01AD81BE81A617B70719F4201612
S11327F0310669F01801488D598DB801C9012AA71D
S11328003BA70E94D00A2AA53BA53E832D8320E046
S113281030E040E05FE3D2016B2F742D862D972DBD
S11328200E94021F562E472E3C0168A179A18AA15D
S11328309BA10E941B208B018DA79CA76D871D8BDC
S11328408E8B9F8B762F982F8F89272F312F492F8F
S1132850582FD2016B2F742D862D972D0E94791F2E
S113286018160CF085CFE981FA81E53BF10508F0F3
S1132870E4C0FDA5FD872CA5298389899A89AA2707
S113288097FDA095BA2F898B9A8BAB8BBC8B29852E
S11328903A85442737FD4095542F29873A874B873B
S11328A05C8758C0C501B4010E94ED212B013C0195
S11328B0A7019601FD85E981602F712F8F2F9E2F2F
S11328C00E94011F0E94ED219B01AC01C301B201D2
S11328D00E94011F0E94AF219B01AC0169857A858A
S11328E08B859C852AA73BA748A759A70E941B2034
S11328F02AA53BA548A559A50E94011F0E94E81FCF
S11329002B013D852981602F712F832F922F0E94E7
S1132910ED1F3B014D815E814617570719F42414BE
S1132920350449F01201488D598DB201C3010E944A
S1132930D00A7E826D8220E030E040E05FE3FD85D6
S1132940E981602F712F8F2F9E2F0E94011F8B0111
S11329508D87998369897A898B899C890E941B2038
S11329609B01AC01FD85E981602F712F8F2F9E2F74
S11329700E94442187FF96CF12C1C501B4010E9471
S1132980ED212B013C01A7019601BD85AD89EE899E
S11329901F896B2F7A2F8E2F912F0E94011F0E9467
S11329A0ED219B01AC01C301B2010E94011F0E94F1
S11329B0AF219B01AC016A8D7B8D8C8D9D8D2AA7E7
S11329C03BA748A759A70E941B202AA53BA548A5B9
S11329D059A50E94011F0E94E81F8B015D854D8946
S11329E03E892F89652F742F832F922F0E94ED1F0C
S11329F03B018D819E818615970519F420163106B9
S1132A0049F01801488D598DB801C3010E94D00ABC
S1132A107E826D8220E030E040E05FE3BD85AD89D9
S1132A20EE891F896B2F7A2F8E2F912F0E94011F01
S1132A306D877D8B8E8B9F8B19C08A8D9B8DAE8D00
S1132A40BF8D8A1B9B0B9C01442737FD4095542F57
S1132A5029833A834B835C8389859A85AA2797FDCA
S1132A60A095BA2F8A8F9B8FAC8FBD8F69817A8195
S1132A708B819C810E941B202B013C01762F272FE8
S1132A80352D462D572DBD85AD89EE891F896B2FB8
S1132A907A2F8E2F912F0E94442187FF6ECF5AC028
S1132AA0C501B4010E94ED2169837A838B839C83E1
S1132AB0A7019601642D752D862D972D0E94011F67
S1132AC00E94ED219B01AC0169817A818B819C81FB
S1132AD00E94011F0E94AF2169837A838B839C83A8
S1132AE069857A858B859C850E941B209B01AC019E
S1132AF069817A818B819C810E94021F0E94E81F58
S1132B008B01642D752D862D972D0E94ED1F9B0141
S1132B10AD81BE81A617B70719F42016310669F0F6
S1132B201801488D598DB801C9012AA73BA70E94F5
S1132B30D00A2AA53BA53E832D8320E030E040E067
S1132B405FE3642D752D862D972D0E94021F2B01A6
S1132B503C0114C029893A89442737FD4095542FF4
S1132B60298B3A8B4B8B5C8B89859A85AA2797FD99
S1132B70A095BA2F89879A87AB87BC8769897A8998
S1132B808B899C890E941B209B01AC01642D752DAF
S1132B90862D972D0E94791F18160CF081CFAD96C3
S1132BA00FB6F894DEBF0FBECDBFDF91CF911F915A
S1132BB00F91FF90EF90DF90CF90BF90AF909F90D8
S1132BC08F907F906F905F904F903F902F900895DB
S1132BD06F927F928F929F92AF92BF92CF92DF9229
S1132BE0EF92FF920F931F93CF93DF936C015B01DE
S1132BF0942E852E722E632E0E947E0AC92DD82D06
S1132C00CC16DD06D0F4E60118C0E72CF62CAE1481
S1132C10BF0448F4750107C0602F812F0E94ED089E
S1132C208FEFE81AF80AE72DF62DEA15FB0508F4EC
S1132C30F501EE15FF0580F72196E92DF82DEC1529
S1132C40FD0508F4F601EC17FD07F8F6DF91CF91C6
S1132C501F910F91FF90EF90DF90CF90BF90AF90B6
S1132C609F908F907F906F9008959093BC00809375
S1132C70BB00FC012491EDEBF0E020831182FC0108
S1132C803196E491AFEBB0E0EC9311961C92FC0109
S1132C903296E491E093C100FC01339684918093D1
S1132CA0C20008956F927F928F929F92AF92BF92CB
S1132CB0CF92DF92EF92FF920F931F93CF93DF9304
S1132CC08C015B01742E8090BD009090BE00B40115
S1132CD0E3E076956795EA95E1F780E090E00E945D
S1132CE019200E94661F6B017C016090C100C09195
S1132CF0BF00D091C0009E01215031092A0D3B1D17
S1132D00A40141505109400F511FB501C8010E944F
S1132D107E0A8091B000813009F050C0C701B6012D
S1132D200E94ED1FE62EF12C872D90E08619910963
S1132D308C9F90018D9F300D9C9F300D11242E9DF2
S1132D4080012F9D100D3E9D100D11240C5F1F4F0F
S1132D50B12C24C0800F911FE091BB00F091BC0006
S1132D60E80FF91FE491C7E0D0E0CE2ED12CC601C4
S1132D700C2E02C0959587950A94E2F780FF05C052
S1132D806091B7008091B60004C06091B900809151
S1132D90B8000E94ED08219750F7B3948B2D90E072
S1132DA04091BF005091C000E49E9001E59E300D1B
S1132DB0F49E300D11248217930760F2DF91CF91B6
S1132DC01F910F91FF90EF90DF90CF90BF90AF9045
S1132DD09F908F907F906F900895EF92FF920F9342
S1132DE01F93CF93DF937B018A01EC010AC0B701E3
S1132DF0CE010E9452168091BD009091BE00C80F72
S1132E00D91FF80141918F014111F1CFDF91CF9189
S1132E101F910F91FF90EF90089589B7826089BF49
S1132E2085E083BF83EC8CBF12BE089517B887EC8E
S1132E3086B9089587B9369A349BFECF24B135B14B
S1132E40A9EEB1E10E949B2228EE33E040E050E07D
S1132E500E945D22C9010895CF93DF9300D000D072
S1132E601F92CDB7DEB785E0E2E7F0E0DE01119610
S1132E7001900D928A95E1F784E00E941A179C0153
S1132E802A5A3A4037FF03C0319521953109283E2B
S1132E9083E0380720F0C90168EE73E003C0C9017C
S1132EA064E670E00E944922605D6983EAE0F0E034
S1132EB0C901BF010E944922282FCB01BF010E94F2
S1132EC04922805D8A83205D2C8380EE97E00E94F6
S1132ED0720A82E790E00E943516AE014F5F5F4FA1
S1132EE064E670E080E890E00E94ED160F900F9089
S1132EF00F900F900F90DF91CF9108951F920F9232
S1132F000FB60F9211248F939F938091A100982F55
S1132F109F5F9093A100843659F412BE1092A100D1
S1132F2081E08093A2008091A0008F5F8093A00035
S1132F309F918F910F900FBE0F901F9018952F9215
S1132F403F924F925F926F927F928F929F92AF9235
S1132F50BF92CF92DF92EF92FF920F931F93CF9382
S1132F60DF93CDB7DEB72D970FB6F894DEBF0FBE53
S1132F70CDBF282E162F7A0195E0E7E7F0E0DE01B9
S1132F80119601900D929A95E1F7CA0160E177E2FA
S1132F900E944922605D6983C70168EE73E00E9464
S1132FA04922CB012AE030E0B9010E944922805D28
S1132FB08A83C70164E670E00E944922CB01B9010B
S1132FC00E944922805D8C83312C812F90E09F8365
S1132FD08E83220C331CFC01E20DF31D53E0EE0F33
S1132FE0FF1F5A95E1F7E058FF4F2681378144814E
S1132FF05581628173810FE110E0808191810E948B
S1133000E70C80E098EF0E94720A82E790E00E9449
S11330103516EE81FF81EE0FFF1FE05AFF4F6081EE
S1133020718162517109F101EC59FF4F80819181E5
S1133030AE014F5F5F4F81970E94ED16B70180E0AC
S113304090E00E94192020E030E04AE754E40E9416
S1133050801F20E030E040EA51E40E94801F4B01D1
S11330605C0120E030E040E85FE3792D9B2D0E9475
S11330704421181634F4812C912C20E8A22E3FE32D
S1133080B32EF101EC59FF4F00811181B80180E0AA
S113309090E00E9419206B017C0120E030E044EBB9
S11330A052E4682D792D8A2D9B2D0E9448219B0185
S11330B0AC0160E070E087E093E40E94011F2BED17
S11330C03FE049E450E40E94482120E030E044E33A
S11330D053E40E94801F0E947D1F2B013C0120E0CD
S11330E030E042EB52E40E9448219B01AC01C7014D
S11330F0B6010E94021F20E030E040E85FE30E9436
S1133100021F0E94ED1F4B015C017987688720E054
S113311030E040E152E4C301B2010E9448219B0126
S1133120AC01C701B6010E94021F20E030E040E874
S11331305FE30E94021F0E94ED1F6B017C017D87EB
S11331406C87EE81FF81EE0FFF1FE05AFF4F608115
S1133150718180E090E00E9419202B013C01C401A0
S1133160801B910B889F9001899F300D300D112495
S113317061EF7EE1621B730B80E090E00E941920F6
S11331800E94AF219B01AC01C301B2010E94011F47
S11331900E94ED1F688779878A879B87C601801BF9
S11331A0910B889F9001899F300D300D112460E1AF
S11331B075E0621B730B80E090E00E9419200E946E
S11331C0AF219B01AC01C301B2010E94011F0E9407
S11331D0ED1F2B013C0100E110E89B01A60168856D
S11331E07985C4010E94E70CEE81FF81E20DF31D95
S11331F093E0EE0FFF1F9A95E1F7E058FF4F91829D
S113320080828885998593838283D582C4825782FC
S113321046822D960FB6F894DEBF0FBECDBFDF9168
S1133220CF911F910F91FF90EF90DF90CF90BF90BF
S1133230AF909F908F907F906F905F904F903F9052
S11332402F900895CF93DF93D82F0E94CF08C82FD3
S11332506AE00E943D22805D80936E00905D9093B1
S11332606F00D11102C0C1111BC00E94D208282FC7
S11332706AE00E943D22805D80936B00905D909394
S11332806C00D11102C021110BC00E94D5086AE064
S11332900E943D22805D80936800905D9093690058
S11332A086E59CE00E94351680E090E00E94720A58
S11332B048E650E060EE70E080E091E00E94ED1698
S11332C01092A20028EE33E0C29FA001C39F500DCC
S11332D0112460E070E080E090E0DF91CF910C94E5
S11332E09F172F923F924F925F926F927F928F928D
S11332F09F92AF92BF92CF92DF92EF92FF920F9381
S11333001F93CF93DF93CDB7DEB768970FB6F894CA
S1133310DEBF0FBECDBF61E082E00E9407090E94BC
S1133320010C8FE190E00E946D0C8FE190E00E940F
S1133330770A00E114E820EF30E04AEF50E06CED4A
S113334070E080E090E00E94E81500EE1FEF2BEDA6
S113335030E040E451E069ED70E080E090E00E94EC
S1133360E8152DE630E040E451E06BE670E080E0E3
S113337090E00E94E81528ED30E041EA50E060E07A
S113338070E08FE990E00E94E81526E730E042EC17
S113339050E061E670E08DE790E00E94E8150FE1EF
S11333A010E020EF30E040E451E06CED70E08EEF8F
S11333B090E00E94E81500EE1FEF20EF30E04DEFA3
S11333C050E06CED70E08BEF90E00E94E81524E68D
S11333D0222E20E0322E24E039E23C8B2B8B1C86FB
S11333E0C0C3E981FA816081718180EEE82E87E0B3
S11333F0F82E0AE510E02DE230E044E650E0F10159
S1133400808191810E949C0FE981FA8160817181A0
S11334102DE230E043E650E0F101808191810E9489
S11334209C0FE981FA81608171812DE230E04BE5E6
S113343050E0F101808191810E949C0FE981FA8121
S1133440608171812DE230E04AE550E0F101808134
S113345091810E949C0F92E6C92ED12CE981FA81B8
S113346060817181E12C18EFF12E0FE010E02DE264
S113347030E0A601F101808191810E949C0FE981D5
S1133480FA816081718100EEE02E07E0F02E0BE4FA
S113349010E02CE330E0A601F101808191810E94CB
S11334A09C0FF1E0CF1AD1082BE5C216D104B1F676
S11334B0F10160807180B30180E090E00E941920E6
S11334C06B017C0126EF3EE84EE752E40E94021FA6
S11334D020E030E040E85FE30E94021F0E94ED1FFD
S11334E08B012EED3BE64DE852E4C701B6010E9484
S11334F0021F20E030E040E85FE30E94021F0E94C8
S1133500ED1F2B01E981FA816081718180E090E0F7
S11335100E9419206F83788789879A8760E070E01A
S113352084EB92E40E94ED216B837C838D839E83E4
S1133530B8016619770980E090E00E9419200E9482
S1133540ED219B01AC016B817C818D819E810E9468
S1133550011F0E94AF216D8B7E8B8F8B988F60E053
S113356070E088EC92E40E94ED216F87788B898B60
S11335709A8BB2016619770980E090E00E941920C5
S11335800E94ED219B01AC016F85788989899A8914
S11335900E94011F0E94AF219B01AC016F817885BD
S11335A089859A850E94011F0E94ED1F5B01C12C31
S11335B0D12C612C712C2D893E894F89588D6F81B6
S11335C0788589859A850E94011F0E94ED1F9B01C1
S11335D040E050E0B80180E090E01F921F921F92FB
S11335E0FAE0FF93B0EE8B2EB7E09B2E83017201BD
S11335F00E94840DF10160807180B30180E090E04D
S11336000E9419206B017C012FEF3FEF43E352E44A
S11336100E94021F20E030E040E85FE30E94021FA6
S11336200E94ED1F8B012FEF3FEF47E452E4C701E7
S1133630B6010E94021F20E030E040E85FE30E94F0
S1133640021F0E94ED1F2B01E981FA8160817181C3
S113365080E090E00E9419206F83788789879A8799
S1133660B8016619770980E090E00E9419200E9451
S1133670ED219B01AC016B817C818D819E810E9437
S1133680011F0E94AF216D8B7E8B8F8B988FB201AF
S11336906619770980E090E00E9419200E94ED21CC
S11336A09B01AC016F85788989899A890E94011FE1
S11336B00E94AF219B01AC016F81788589859A8531
S11336C00E94011F0E94ED1F5B01C12CD12C612CB3
S11336D0712C2D893E894F89588D6F817885898514
S11336E09A850E94011F0E94ED1F9B0140E050E05B
S11336F0B80180E090E01F921F921F92FAE0FF93BE
S1133700830172010E94840DF101A080B180B50192
S113371080E090E00E9419206B017C0126EF3EE8D6
S11337204EE752E40E94011F20E030E040E85FE3EE
S11337300E94011F0E94ED1F78876F832EED3BE6E8
S11337404DE852E4C701B6010E94011F20E030E0B9
S113375040E85FE30E94011F0E94ED1F2B01E981F5
S1133760FA816081718180E090E00E9419206B01F0
S11337707C01B5012F813885621B730B80E090E0DA
S11337800E9419200E94ED219B01AC016B817C8178
S11337908D819E810E94011F0E94AF219B01AC017B
S11337A0C701B6010E94011F0E94ED1F3B01B50134
S11337B06419750980E090E00E9419200E94ED21AF
S11337C09B01AC016F85788989899A890E94011FC0
S11337D00E94AF219B01AC01C701B6010E94011FE9
S11337E00E94ED1F9B0140E050E02B833C834D83FE
S11337F05E83720100E010E0930140E050E0EF814D
S1133800F885BF0180E090E01F921F921F92FAE0BA
S1133810FF93AB80BC80CD80DE800E94840D72015A
S11338202FEFE21AF20A00E010E09301215031096F
S113383040E050E06F8178856F5F7F4F80E090E0DB
S11338401F921F921F92EAE0EF93AB80BC80CD8061
S1133850DE800E94840D80E090E00E94720A86E57A
S11338609CE00E943516E981FA81608171816F5371
S11338707109F101808191814DE750E088549109EB
S11338800E94ED16E981FA81608171816F5371099B
S1133890F101808191814CE750E0CF960E94ED16B2
S11338A00FB6F894DEBF0FBECDBF612C712CE98139
S11338B0FA8120813181F101608171816352710942
S11338C06619770980E090E05901C12CD12C23516D
S11338D031092619370940E050E01F921F921F92C8
S11338E0F1E0FF93A0EE8A2E99249A947B018C0137
S11338F00E94840DE981FA8140815181461957095A
S1133900F10180819181861997095A01F6E1AF1A74
S1133910B108C12CD12C7C0120E2E21AF10800E0AC
S113392010E09A012351310940E050E0BC01635298
S1133930710980E090E01F921F921F92E1E0EF93E3
S11339400E94840D0FB6F894DEBF0FBECDBF32E0E7
S11339506316710461F1E981FA814081518146194C
S11339605709F10180819181861997095A01F6E17D
S1133970AF1AB108C12CD12C7C0121E2E21AF10862
S113398000E010E09A012351310940E050E0BC010D
S11339906452710980E090E01F921F921F92E1E04F
S11339A0EF930E94840D0F900F900F900F90E98178
S11339B0FA8120813181F10160817181605E7F4FE4
S11339C0660D771D80E090E05901C12CD12C235164
S11339D031092619370940E050E01F921F921F92C7
S11339E0F1E0FF93F0EE8F2E99249A947B018C01E1
S11339F00E94840DE981FA81408151814619570959
S1133A00F10180819181860D971D5A01F6E1AF1A6B
S1133A10B108C12CD12C7C012DE1E20EF11C00E097
S1133A2010E09A012351310940E050E0BC01605E8E
S1133A307F4F80E090E01F921F921F92E1E0EF938E
S1133A400E94840D0FB6F894DEBF0FBECDBF32E0E6
S1133A506316710461F1E981FA814081518146194B
S1133A605709F10180819181860D971D5A01F7E173
S1133A70AF1AB108C12CD12C7C012DE1E20EF11C4E
S1133A8000E010E09A012451310940E050E0BC010B
S1133A90605E7F4F80E090E01F921F921F92E1E0F2
S1133AA0EF930E94840D0F900F900F900F90F101EF
S1133AB060817181E981FA81208131812651310946
S1133AC02619370940E050E07B01FDE1EF0EF11CBF
S1133AD0E60CF71C00E010E06052710966197709E2
S1133AE080E090E01F921F921F92E1E0EF93E0EEDE
S1133AF08E2E99249A9459016A010E94840DFFEF35
S1133B006F1A7F0A0F900F900F900F9023E06216A8
S1133B10710409F0CCCE4D855E856B858C850E9441
S1133B209F173B853F5F3B8749815A814E5F5F4FBB
S1133B305A8349838D859E858455924F9E878D87B0
S1133B40323009F04ECC9C859F5F9C87E2E02E0EBC
S1133B50311C2B893C89285A344E3C8B2B8B923058
S1133B6051F040E650E05A8349838B899C899E87B3
S1133B708D871B8636CC68960FB6F894DEBF0FBED1
S1133B80CDBFDF91CF911F910F91FF90EF90DF9008
S1133B90CF90BF90AF909F908F907F906F905F90E9
S1133BA04F903F902F9008951BBA88E08ABB18BAB3
S1133BB089E187BB15BA82E084BB12BA8FEF81BB5F
S1133BC00E94711981E00E9422190E940D170E941F
S1133BD016170E942C1778948091A200882319F05C
S1133BE080E00E9422198091A0008130A9F71092F0
S1133BF0A0000E942C17F0CF1F920F920FB60F92C5
S1133C0011242F933F938F939F93EF93FF9381B14D
S1133C10887F883299F040F4803171F0883171F0F6
S1133C20883009F047C008C08035F9F08835B1F113
S1133C30803409F03FC024C01092C3008091C300B7
S1133C409091A300891760F4E82FF0E0EC55FF4F42
S1133C50908193B995E896BF8F5F8093C3002EC07F
S1133C608FEF8093710084E928C08091C300E82F0E
S1133C70F0E093B1EC55FF4F90838F5F8093C300C6
S1133C808091A3002091C30030E090E001972817B1
S1133C90390714F485EC11C085E80FC0E091C30026
S1133CA0F0E083B1EC55FF4F80838FEF8093710078
S1133CB084E103C08093710084E086BFFF91EF919B
S1133CC09F918F913F912F910F900FBE0F901F9056
S1133CD01895B99AC19A81E28A95F1F70000C09AC1
S1133CE081E28A95F1F70000C19881E28A95F1F7A3
S1133CF00000C09881E28A95F1F70000B998089510
S1133D00B99A27E030E090E0AC01022E02C055954C
S1133D1047950A94E2F740FF02C0C19A01C0C198D6
S1133D2041E24A95F1F70000C09A41E24A95F1F761
S1133D300000C09841E24A95F1F700002150310992
S1133D4018F7B9980895B99AC19881E28A95F1F75C
S1133D500000C09A81E28A95F1F70000C19A81E2DD
S1133D608A95F1F70000B9980895B99AC19A81E249
S1133D708A95F1F70000B998C09A83E091E29A9588
S1133D80F1F70000B19B02C08150C1F786B3C0981F
S1133D9091E29A95F1F7000082700895B99AC19A58
S1133DA081E28A95F1F70000B998C09A83E091E224
S1133DB09A95F1F70000B19902C08150C1F7C098FB
S1133DC081E28A95F1F700000895B99AC19AB998E9
S1133DD098E080E0C09A22E42A95F1F700C0880FA9
S1133DE0B19B02C0816001C08E7F22E42A95F1F765
S1133DF000C0C09822E42A95F1F700C0915051F711
S1133E0008955058BB27AA270ED0DCC1A5D130F0A5
S1133E10AAD120F031F49F3F11F41EF49AC10EF49C
S1133E20E095E7FB67C1E92FEFD180F3BA1762078A
S1133E3073078407950718F071F49EF51EC20EF4FB
S1133E40E0950B2EBA2FA02D0B01B90190010C01A6
S1133E50CA01A0011124FF27591B99F0593F50F4BE
S1133E60503E68F11A16F040A22F232F342F442716
S1133E70585FF3CF469537952795A795F04053950E
S1133E80C9F77EF41F16BA0B620B730B840BBAF0DE
S1133E909150A1F0FF0FBB1F661F771F881FC2F749
S1133EA00EC0BA0F621F731F841F48F4879577955D
S1133EB06795B795F7959E3F08F0B3CF9395880F14
S1133EC008F09927EE0F979587950895BFD180F054
S1133ED09F3740F491110EF4D1C160E070E080E8A6
S1133EE09FE3089526F01B16611D711D811D08C1F5
S1133EF022C1DCD008F481E008953DD1E39573C17B
S1133F000CD060C130D140F027D130F021F45F3FB4
S1133F1019F0F0C05111B2C11CC176D198F39923A4
S1133F20C9F35523B1F3951B550BBB27AA27621779
S1133F307307840738F09F5F5F4F220F331F441FBE
S1133F40AA1FA9F333D00E2E3AF0E0E830D09150F6
S1133F505040E695001CCAF729D0FE2F27D0660FE3
S1133F60771F881FBB1F261737074807AB07B0E822
S1133F7009F0BB0B802DBF01FF2793585F4F2AF038
S1133F809E3F510568F0B6C079C15F3FECF3983E9F
S1133F90DCF3869577956795B795F7959F5FC9F795
S1133FA0880F911D9695879597F90895E1E0660F1E
S1133FB0771F881FBB1F621773078407BA0720F097
S1133FC0621B730B840BBA0BEE1F88F7E095089500
S1133FD004D06894B11152C108951ED188F09F573E
S1133FE090F0B92F9927B751A0F0D1F0660F771F41
S1133FF0881F991F1AF0BA95C9F712C0B13081F021
S11340003CD1B1E0089539C1672F782F8827B85F74
S113401039F0B93FCCF3869577956795B395D9F781
S11340203EF490958095709561957F4F8F4F9F4F8B
S11340300895E89409C097FB3EF490958095709597
S113404061957F4F8F4F9F4F9923A9F0F92F96E9E0
S1134050BB279395F695879577956795B795F11155
S1134060F8CFFAF4BB0F11F460FF1BC06F5F7F4FF2
S11340708F4F9F4F16C0882311F096E911C0772304
S113408021F09EE8872F762F05C0662371F096E80D
S1134090862F70E060E02AF09A95660F771F881FDC
S11340A0DAF7880F9695879597F90895990F000880
S11340B0550FAA0BE0E8FEEF16161706E807F907F6
S11340C0C0F012161306E407F50798F0621B730B91
S11340D0840B950B39F40A2661F0232B242B252B12
S11340E021F408950A2609F4A140A6958FEF811DB5
S11340F0811D089597F99F6780E870E060E0089556
S1134100882371F4772321F09850872B762F07C0EA
S1134110662311F499270DC09051862B70E060E05E
S11341202AF09A95660F771F881FDAF7880F9695FD
S1134130879597F908959F3F31F0915020F4879522
S113414077956795B795880F911D9695879597F9FB
S113415008959FEF80EC089500240A94161617061C
S113416018060906089500240A9412161306140664
S113417005060895EECF50D0E8F3E894E0E0BB27BD
S11341809F57F0F02AED3FE049EC06C0EE0FBB0F5D
S1134190661F771F881F28F0B23A620773078407E7
S11341A028F0B25A620B730B840BE3959A9572F75D
S11341B0803830F49A95BB0F661F771F881FD2F79B
S11341C09048BBCF092E0394000C11F4882352F0BD
S11341D0BB0F40F4BF2B11F460FF04C06F5F7F4F2F
S11341E08F4F9F4F0895EF93E0FF06C0A2EA2AED98
S11341F03FE049EC5FEB17DEE5DF0F90039401FC31
S11342009058E4E5F0E0F3C057FD9058440F551F73
S113421059F05F3F71F04795880F97FB991F61F044
S11342209F3F79F087950895121613061406551FBB
S1134230F2CF4695F1DF08C0161617061806991F27
S1134240F1CF86957105610508940895E5DFA0F026
S1134250BEE7B91788F4BB279F3860F41616B11D62
S1134260672F782F8827985FF7CF8695779567957E
S1134270B11D93959639C8F30895E894BB27662732
S11342807727CB0197F9089511DF08F48FEF08958C
S11342900BD098CF61DF28F066DF18F0952309F082
S11342A029CF57CF1124EACFAFDFA0F3959FD1F3E5
S11342B0950F50E0551F629FF001729FBB27F00DD0
S11342C0B11D639FAA27F00DB11DAA1F649F662725
S11342D0B00DA11D661F829F2227B00DA11D621F74
S11342E0739FB00DA11D621F839FA00D611D221F2E
S11342F0749F3327A00D611D231F849F600D211D12
S1134300822F762F6A2F11249F5750408AF0E1F0B4
S113431088234AF0EE0FFF1FBB1F661F771F881FFD
S113432091505040A9F79E3F510570F0E3CEA6CFBF
S11343305F3FECF3983EDCF3869577956795B795E8
S1134340F795E7959F5FC1F7FE2B880F911D969512
S1134350879597F9089511F40EF4FBCEECCE5CDF4B
S1134360D0F39923D9F3CEF39F57550B87FF38D059
S11343700024A0E640EA900180585695979528F4C9
S1134380805C660F771F881F20F0261737074807C1
S113439030F4621B730B840B202931294A2BA69518
S11343A017940794202531254A2758F7660F771F5D
S11343B0881F20F026173707480730F4620B730B69
S11343C0840B200D311D411DA09581F7B901842F67
S11343D09158880F9695879508959B01AC0158CF05
S11343E091505040660F771F881FD2F708959F930E
S11343F08F937F936F93FF93EF939B01AC0148DFFF
S1134400EF91FF9105D02F913F914F915F9140CF54
S1134410DF93CF931F930F93FF92EF92DF927B0171
S11344208C01689405C0DA2EEF013EDFFE01E894AA
S1134430A5912591359145915591AEF3EF01F3DCAA
S1134440FE019701A801DA9479F7DF90EF90FF90CD
S11344500F911F91CF91DF910895DB018F939F936B
S11344600E94A722BF91AF91A29F800D911DA39F8F
S1134470900DB29F900D11240895991B79E004C00A
S1134480991F961708F0961B881F7A95C9F780958F
S11344900895AA1BBB1B51E107C0AA1FBB1FA61787
S11344A0B70710F0A61BB70B881F991F5A95A9F7D9
S11344B080959095BC01CD010895A1E21A2EAA1B06
S11344C0BB1BFD010DC0AA1FBB1FEE1FFF1FA217C0
S11344D0B307E407F50720F0A21BB30BE40BF50BBD
S11344E0661F771F881F991F1A9469F76095709546
S11344F0809590959B01AC01BD01CF010895052ED7
S113450097FB16F4009407D057FD0DD00E945D224E
S113451007FC09D07EF490958095709561957F4F46
S11345208F4F9F4F089550954095309521953F4F5B
S11345304F4F5F4F0895A29FB001B39FC001A39F47
S113454001D0B29F700D811D1124911D08950E9408
S11345509B22A59F900DB49F900DA49F800D911D4B
S10B456011240895F894FFCF23
S11345686C00D8005000F00032333A35393A353906
S113457800F831322E340039392E39003230000037
S9030000FC
